:020000040800F2
:10000000000002209D1C0008151C0008171C000899
:10001000191C00081B1C00081D1C00080000000023
:100020000000000000000000000000001F1C00088D
:10003000211C000800000000231C0008251C0008EB
:10004000ED1C0008ED1C0008ED1C0008ED1C00086C
:10005000ED1C0008ED1C0008ED1C0008ED1C00085C
:10006000ED1C0008ED1C0008ED1C0008ED1C00084C
:10007000ED1C0008ED1C0008ED1C0008ED1C00083C
:10008000ED1C0008ED1C0008ED1C0008ED1C00082C
:10009000ED1C0008ED1C0008ED1C0008ED1C00081C
:1000A000ED1C0008ED1C0008ED1C0008ED1C00080C
:1000B000ED1C0008ED1C0008ED1C0008ED1C0008FC
:1000C000ED1C0008ED1C0008ED1C0008ED1C0008EC
:1000D000ED1C00082D1C00083D1C00084D1C0008EC
:1000E000ED1C0008ED1C0008ED1C0008ED1C0008CC
:1000F000ED1C0008ED1C0008ED1C0008ED1C0008BC
:10010000ED1C0008ED1C0008ED1C0008ED1C0008AB
:10011000ED1C0008ED1C0008ED1C0008ED1C00089B
:10012000ED1C0008ED1C0008ED1C0008ED1C00088B
:10013000ED1C0008ED1C0008ED1C0008ED1C00087B
:10014000ED1C0008ED1C0008ED1C0008ED1C00086B
:10015000ED1C0008ED1C0008ED1C0008ED1C00085B
:10016000ED1C0008ED1C0008ED1C0008ED1C00084B
:10017000ED1C0008ED1C0008ED1C0008000000004C
:08018000ED1C0008ED1C000855
:1001880010B5054C237833B9044B13B10448AFF3C9
:1001980000800123237010BD4C08002000000000DF
:1001A8006431000808B5034B1BB103490348AFF39A
:1001B800008008BD000000005008002064310008DD
:1001C80053B94AB9002908BF00281CBF4FF0FF31B6
:1001D8004FF0FF3000F074B9ADF1080C6DE904CEB2
:1001E80000F006F8DDF804E0DDE9022304B070470A
:1001F8002DE9F047089E0D4604468846002B4DD150
:100208008A42944668D9B2FA82F252B101FA02F3EC
:10021800C2F1200120FA01F10CFA02FC41EA0308BC
:1002280094404FEA1C45210CB8FBF5FE1FFA8CF7E9
:1002380005FB1E8341EA03430EFB07F199420BD9E4
:100248001CEB03030EF1FF3080F01E81994240F24F
:100258001B81AEF1020E63445B1AA4B2B3FBF5F046
:1002680005FB103344EA034400FB07F7A7420AD909
:100278001CEB040400F1FF3380F00881A74240F230
:10028800058164440238E41B40EA0E4000211EB197
:10029800D4400023C6E90043BDE8F0878B4208D963
:1002A800002E00F0EE800021C6E900050846BDE8F2
:1002B800F087B3FA83F100294AD1AB4202D38242D4
:1002C80000F2F980841A65EB030301209846002E9A
:1002D800E2D0C6E90048DFE702B9FFDEB2FA82F2EF
:1002E800002A40F09180A1EB0C054FEA1C471FFA49
:1002F8008CFE0121B5FBF7F307FB1350250C45EAEB
:1003080000450EFB03F0A84208D91CEB050503F1D4
:10031800FF3802D2A84200F2CB8043462D1AA4B27D
:10032800B5FBF7F007FB105544EA05440EFB00FE49
:10033800A64508D91CEB040400F1FF3502D2A645F6
:1003480000F2BB802846A4EB0E0440EA03409EE777
:10035800C1F120078B4022FA07FC4CEA030C20FA73
:1003680007F405FA01F31C43FD404FEA1C4900FA63
:1003780001F3B5FBF9F8200C1FFA8CFE09FB1855A0
:1003880040EA054508FB0EF0A84202FA01F20BD933
:100398001CEB050508F1FF3A80F08880A84240F27E
:1003A8008580A8F1020865442D1AA4B2B5FBF9F0BE
:1003B80009FB105544EA054500FB0EFEAE4508D979
:1003C8001CEB050500F1FF346CD2AE456AD9023842
:1003D800654440EA0840A0FB0294A5EB0E05A5423F
:1003E800C846A64656D353D05EB1B3EB080265EBB8
:1003F8000E0505FA07F722FA01F3CD401F43C6E9B7
:1004080000750021BDE8F087C2F1200320FA03F14E
:100418000CFA02FC25FA03F395400D434FEA1C47FA
:100428001FFA8CFEB3FBF7F107FB11302B0C43EAE4
:10043800004301FB0EF0984204FA02F408D91CEBC1
:10044800030301F1FF382FD298422DD902396344B2
:100458001B1AADB2B3FBF7F007FB103345EA0345AF
:1004680000FB0EF3AB4208D91CEB050500F1FF3881
:1004780016D2AB4214D902386544ED1A40EA01415C
:1004880038E73146304607E78646E5E61846FAE695
:100498004B45A9D2B9EB020864EB0C0E0138A3E76F
:1004A8004046EAE7204694E74146D1E7D0467BE755
:1004B800023B654432E7084609E76444023842E7EC
:1004C800704700BF10B504460E4B18784FF47A7386
:1004D800B3FBF0F30C4A1068B0FBF3F000F09CF8A3
:1004E80068B90F2C01D901200AE0002221464FF0FB
:1004F800FF3000F04BF8054B1C60002000E00120A5
:1005080010BD00BF000000200800002004000020EB
:1005180008B50B4B1A6842F400721A601A6842F464
:1005280080621A601A6842F480721A60032000F030
:100538001BF80020FFF7C6FF01F0A8FA002008BD4D
:10054800003C0240034A1168034B1B780B441360BC
:10055800704700BF6808002000000020014B1868A1
:10056800704700BF68080020074AD36823F4E06397
:100578001B041B0C000200F4E060034343F0BF635C
:1005880043F40033D360704700ED00E000B5194B29
:10059800DB68C3F30223C3F1070CBCF1040F28BFC7
:1005A8004FF0040C03F1040EBEF1060F18D9033BFB
:1005B8004FF0FF3E0EFA0CFC21EA0C0199400EFAAE
:1005C80003F322EA0303194300280BDB0901C9B22C
:1005D80000F1604000F5614080F800135DF804FB0D
:1005E8000023E5E700F00F000901C9B2024B1954D6
:1005F800F4E700BF00ED00E014ED00E0002807DBA1
:1006080000F01F02400901239340024A42F82030BB
:10061800704700BF00E100E00138B0F1807F0BD2E5
:100628004FF0E0235861054AF02182F8231000209A
:10063800986107221A6170470120704700ED00E0B9
:1006480070B50446866DFFF789FF94F83530DBB244
:10065800022B06D080236365002384F83430012000
:1006680070BD05462268136823F0160313602268DC
:10067800536923F080035361236CE3B12268136844
:1006880023F0080313602268136823F00103136042
:1006980023681B6813F0010F11D0FFF75FFF431B9E
:1006A800052BF5D920236365002384F83430032013
:1006B80084F83500D4E7A36C002BDFD1E3E7E26DC3
:1006C8003F239340B360002084F83400012384F86A
:1006D8003530C5E790F83530DBB2022B03D08023E4
:1006E800436501207047052380F835300268136898
:1006F80023F00103136000207047000000230F2B34
:1007080000F2E48070B582B060E085685E00032482
:10071800B44025EA0405CC68B4402C43846045689D
:1007280025EA02054C68C4F300129A402A43426045
:100738005AE0DC08083450F8246003F007029500FA
:100748000F22AA4026EA020E0A69AA4042EA0E02CD
:1007580040F824205CE0072200E0002202FA0EF2B2
:100768002A4302345A4D45F824205A4A14686FEA3D
:100778000C0224EA0C054E6816F4803F01D04CEABE
:100788000405544C2560646802EA04054E6816F4B2
:10079800003F01D04CEA04054E4C6560A46802EAAB
:1007A80004054E6816F4801F01D04CEA0405494C34
:1007B800A560E46822404D6815F4001F01D04CEA9A
:1007C8000402444CE26001330F2B7DD801229A4089
:1007D8000C6804EA020C32EA0404F4D14C6804F010
:1007E8000304013C012C90D94A6802F00302032A51
:1007F80009D0C4685D000322AA4024EA02048A687A
:10080800AA402243C2604A6802F00302022A90D03A
:1008180004684FEA430E032202FA0EF224EA0204A5
:100828004A6802F0030202FA0EF2224302604A68A2
:1008380012F0805FC7D000220192274A546C44F41A
:1008480080445464526C02F480420192019A9C08DC
:10085800A51C1F4A52F8255003F003024FEA820EE6
:100868000F2202FA0EF225EA02051C4A90423FF4D2
:1008780074AF02F5806290421AD002F5806290420D
:1008880018D002F58062904216D002F5806290423C
:1008980014D002F58062904212D002F58062904234
:1008A80010D002F5806290423FF455AF082255E718
:1008B800012253E7022251E703224FE704224DE7C2
:1008C80005224BE7062249E702B070BD704700BF1A
:1008D80000380140003C014000380240000002405E
:1008E8000AB181617047090481617047002800F0EE
:1008F800E08170B582B00446036813F0010F3BD065
:100908009F4B9B6803F00C03042B2CD09C4B9B68DB
:1009180003F00C03082B21D06368B3F5803F4FD058
:10092800B3F5A02F52D0964B1A6822F480321A6081
:100938001A6822F480221A606368002B50D0FFF7EF
:100948000DFE05468E4B1B6813F4003F14D1FFF7CC
:1009580005FE401B6428F5D90320B1E1884B5B688C
:1009680013F4800FD8D0864B1B6813F4003F03D0D4
:100978006368002B00F09F81236813F0020F54D0A6
:100988007F4B9B6813F00C0F3ED07D4B9B6803F0A8
:100998000C03082B33D0E368002B68D0794B012275
:1009A8001A60FFF7DBFD0546754B1B6813F0020F55
:1009B80054D1FFF7D3FD401B0228F5D903207FE16E
:1009C8006F4A136843F480331360B5E76C4B1A68B9
:1009D80042F480221A601A6842F480321A60ABE747
:1009E800FFF7BCFD0546664B1B6813F4003FC3D0F8
:1009F800FFF7B4FD401B6428F5D9032060E1604B84
:100A08005B6813F4800FC6D15D4B1B6813F0020FAF
:100A180003D0E368012B40F05081594A136823F052
:100A2800F803216943EAC1031360236813F0080F30
:100A380042D063696BB3534B0122C3F8802EFFF792
:100A48008DFD05464E4B5B6F13F0020F34D1FFF757
:100A580085FD401B0228F5D9032031E1484A136877
:100A680023F0F803216943EAC1031360DDE7454B2E
:100A780000221A60FFF772FD0546414B1B6813F010
:100A8800020FD2D0FFF76AFD401B0228F5D90320D8
:100A980016E13C4B0022C3F8802EFFF75FFD0546A8
:100AA800374B5B6F13F0020F06D0FFF757FD401B63
:100AB8000228F5D9032003E1236813F0040F77D047
:100AC8002F4B1B6C13F0805F33D1002301932C4B09
:100AD8001A6C42F080521A641B6C03F08053019325
:100AE800019B0125284B1B6813F4807F23D0A36842
:100AF800012B34D0052B38D0214B1A6F22F001027C
:100B08001A671A6F22F004021A67A368002B3DD0F7
:100B1800FFF724FD06461A4B1B6F13F0020F46D150
:100B2800FFF71CFD801B41F288339842F3D903205C
:100B3800C6E00025D6E7144A136843F480731360AF
:100B4800FFF70CFD0646104B1B6813F4807FCED1CF
:100B5800FFF704FD801B0228F5D90320B0E0084AFE
:100B6800136F43F001031367CFE7054B1A6F42F089
:100B780004021A671A6F42F001021A67C5E700BF3C
:100B8800003802400000474200700040FFF7E6FCD2
:100B98000646524B1B6F13F0020F08D0FFF7DEFC1E
:100BA800801B41F288339842F3D9032088E0EDB9DD
:100BB800A369002B00F08380484A926802F00C0277
:100BC800082A51D0022B17D0454B00221A66FFF78E
:100BD800C5FC0446414B1B6813F0007F42D0FFF769
:100BE800BDFC001B0228F5D9032069E03B4A136CC1
:100BF80023F080531364DBE7394B00221A66FFF7B2
:100C0800ADFC0546354B1B6813F0007F06D0FFF797
:100C1800A5FC401B0228F5D9032051E0E369226AAC
:100C28001343626A43EA8213A26A5208013A43EA0A
:100C38000243E26A43EA0263284A5360284B0122CE
:100C48001A66FFF78BFC0446244B1B6813F0007FE1
:100C580006D1FFF783FC001B0228F5D903202FE0FB
:100C680000202DE000202BE0012B2BD01B4B5B68D4
:100C780003F48001E269914226D103F03F02216A20
:100C88008A4223D1616A47F6C0721A40B2EB811FCB
:100C98001ED103F44031A26A5208013AB1EB024F67
:100CA80018D103F07063E26AB3EB026F14D100202D
:100CB80006E001207047012002E0012000E000204A
:100CC80002B070BD0120FBE70120F9E70120F7E73A
:100CD8000120F5E70120F3E70120F1E700380240A1
:100CE8000000474208B5314B9B6803F00C03042B06
:100CF80057D0082B57D12D4B5A6802F03F025B683A
:100D080013F4800F2AD0294B5968C1F3881C4FEA85
:100D18004C11B1EB0C006EEB0E0E4FEA8E1343EA4A
:100D280090638101091A63EB0E03DB0043EA5173F8
:100D3800C90011EB0C0C43F10003590200234FEAE0
:100D48004C2041EADC51FFF73BFA184B5B68C3F3D0
:100D5800014301335B00B0FBF3F025E0134B596806
:100D6800C1F3881C4FEA4C11B1EB0C006EEB0E0E70
:100D78004FEA8E1343EA90638101091A63EB0E036D
:100D8800DB0043EA5173C90011EB0C0C43F100037B
:100D9800990200234FEA8C2041EA9C51FFF710FA90
:100DA800D3E7034800E0034808BD00BF003802400D
:100DB80000127A000024F400002800F09B8070B52F
:100DC8000D4604464F4B1B6803F007038B4208D2BD
:100DD800CBB24C4A1370136803F007038B4240F000
:100DE8008B80236813F0020F17D013F0040F04D080
:100DF800454A936843F4E0539360236813F0080F5F
:100E080004D0414A936843F4604393603E4A936830
:100E180023F0F003A1680B439360236813F0010FDC
:100E280032D06368012B21D09A1E012A25D9364A6F
:100E3800126812F0020F61D033498A6822F0030267
:100E480013438B60FFF78AFB06462F4B9B6803F022
:100E58000C036268B3EB820F16D0FFF77FFB801B91
:100E680041F288339842F0D9032042E0264A1268BA
:100E780012F4003FE0D101203BE0234A126812F04F
:100E8800007FD9D1012034E01E4B1B6803F0070313
:100E9800AB4207D9EAB21B4B1A701B6803F0070371
:100EA800AB422DD1236813F0040F06D0164A93687D
:100EB80023F4E053E1680B439360236813F0080FB1
:100EC80007D0114A936823F46043216943EAC103B8
:100ED8009360FFF707FF0C4B9B68C3F303130B4AA0
:100EE800D35CD8400A4B18600A4B1868FFF7EAFA37
:100EF800002070BD012070470120FAE70120F8E7C3
:100F08000120F6E7003C0240003802408831000822
:100F18000800002004000020014B1868704700BF3B
:100F28000800002008B5FFF7F7FF044B9B68C3F3E0
:100F38008223034AD35CD84008BD00BF0038024072
:100F48009831000808B5FFF7E7FF044B9B68C3F327
:100F58004233034AD35CD84008BD00BF0038024082
:100F6800983100080268D36823F49073D36002684C
:100F7800536923F001035361036B012B05D0202330
:100F880080F83E300023036370470268D36823F07B
:100F98001003D360F3E790F83D30DBB2212B01D08A
:100FA800022070478368B3F5805F17D0036A5A1C24
:100FB80002621A7803685A60C38C9BB2013B9BB2E9
:100FC800C3844BB90268D36823F08003D3600268F6
:100FD800D36843F04003D360002070470369002BB7
:100FE800E4D1036A1B880268C3F308035360036AE9
:100FF80002330362E0E7000038B50446026813696B
:1010080023F44053C1680B43136183680269134397
:1010180042691343C2691A430168CB6823F4164333
:1010280023F00C031343CB600268536923F4407325
:1010380081690B4353610368314A934206D002F534
:101048008062934202D0FFF76DFF01E0FFF77AFF5D
:10105800E369B3F5004F29D00021031849411B1853
:1010680041F10001C90041EA5371DB0018186368B7
:101078004FEA83024FEA937341F10001FFF7A0F8AA
:10108800204DA5FB00325109642303FB11031B010A
:101098003233A5FB03235B0903F0F00202EB0112D4
:1010A80003F00F03216813448B6038BD0023021836
:1010B80043EB0301121841F10001C90041EA5271E2
:1010C800D200101841F10001626892185B41FFF7E5
:1010D80077F80C4DA5FB00325109642303FB11037B
:1010E800DB003233A5FB03235B095A0002F4F872D4
:1010F80002EB011203F00703216813448B60D4E765
:10110800001001401F85EB512DE9F84305460F46B5
:1011180016469946DDF820802C68246837EA0403CF
:101128000CBF4FF0010C4FF0000CB4451FD1B8F1C3
:10113800FF3FF1D0B8F1000F05D0FFF70FFAA0EB91
:1011480009004045E8D92A68D36823F4D073D360EE
:101158002A68536923F001035361202385F83D3041
:1011680085F83E30002385F83C30032000E000205D
:10117800BDE8F88358B310B5044690F83D300BB37A
:10118800242384F83D302268D36823F40053D360C5
:101198002046FFF731FF2268136923F49043136157
:1011A8002268536923F02A0353612268D36843F401
:1011B8000053D36000202064202384F83D3084F855
:1011C8003E3010BD80F83C3000F07CFCD8E70120B0
:1011D80070472DE9F04182B01E4690F83D30DBB2F1
:1011E800202B54D104460D469046002953D0002A9E
:1011F80053D090F83C30012B51D0012380F83C307B
:1012080000230364212380F83D30FFF7A7F9074640
:10121800A4F82480A4F82680A368B3F5805F05D0DD
:101228004FF00008002384F83C3012E0236913B122
:101238004FF00008F6E7A8460025F3E738F8023B28
:101248002268C3F308035360E28C92B2013A92B267
:10125800E284E38C9BB273B100963B460022802166
:101268002046FFF751FFE0B9002DE7D015F8012B14
:1012780023685A60E8E700963B4600224021204652
:10128800FFF742FF78B9202384F83D3000E00220C0
:1012980002B0BDE8F0810120FAE70120F8E702205A
:1012A800F6E70320F4E70320F2E72DE9F04182B0E6
:1012B8001E4690F83E30DBB2202B5CD104460D462A
:1012C800904600295BD0002A5BD090F83C30012B77
:1012D80059D0012380F83C3000230364222280F88F
:1012E8003E200363FFF73AF90746A4F82C80A4F8D8
:1012F8002E80A368B3F5805F05D04FF00008002367
:1013080084F83C3017E0236913B14FF00008F6E782
:10131800A8460025F3E723685B68C3F3080328F8A9
:10132800023B03E023685B682B700135E28D92B2C3
:10133800013A92B2E285E38D9BB2BBB100963B467F
:10134800002220212046FFF7DFFEF0B9002DE2D071
:10135800A368B3F5805FE5D013B92369002BE1D00A
:1013680023685B6803F07F032B70DEE7202384F893
:101378003E30002000E0022002B0BDE8F0810120EC
:10138800FAE70120F8E70220F6E70320F4E77047C0
:1013980008B50168CA6822F04002CA60202280F8B5
:1013A8003D20FFF7F4FF002008BD704708B5806BAB
:1013B8000023C385C384FFF7F8FF08BD704790F882
:1013C8003E30DBB2222B53D110B504468368B3F507
:1013D800805F30D0A26AB3F5805F04D0002B37D18C
:1013E8002369002B34D123685B681370A36A013327
:1013F800A362E38D9BB2013B9BB2E385002B39D1FD
:101408002268D36823F02003D3602268D36823F4CA
:101418008073D3602268536923F00103536120234A
:1014280084F83E30236B012B18D0204600F0B6F923
:101438000020206310BD0269002ACBD1826A0368AC
:101448005B68C3F308031380836A02338362D0E7BF
:1014580023685B6803F07F031370C7E72268D368CB
:1014680023F01003D360A18D2046FFF7A7FFDFE725
:10147800022070470020DDE730B583B004460268DB
:101488001368D068516913F00F0505D113F0200FC8
:1014980002D010F0200F19D12DB111F0010119D18E
:1014A80010F4907F16D1216B012975D013F0800FAD
:1014B80003D010F0800F40F0D88013F0400F03D015
:1014C80010F0400F40F0D58003B030BD2046FFF744
:1014D80076FFF9E713F0010F06D010F4807F03D0F0
:1014E800226C42F00102226413F0040F04D019B1F7
:1014F800226C42F00202226413F0020F04D019B1E8
:10150800226C42F00402226413F0080F07D010F096
:10151800200F00D119B1226C42F008022264226C1B
:10152800002AD1D013F0200F02D010F0200F21D1C3
:1015380023685B6903F04003226C12F0080F00D1A6
:1015480023B32046FFF70EFD23685A6912F0400FB7
:1015580018D05A6922F040025A61A36B73B1474A06
:101568001A65A06BFFF7B6F80028ADD0A06B036D25
:101578009847A9E72046FFF722FFD9E72046FFF75B
:1015880014FFA1E72046FFF710FF9DE72046FFF76D
:101598000CFF0023236497E713F0100F86D010F098
:1015A800100F83D0002301931368019353680193AC
:1015B800019B536913F0400F33D0A16B0B685B6834
:1015C8009BB2002B80D0A08D98427FF67DAFE3853B
:1015D800CB69B3F5807F08D1A18DE38D9BB2C91A81
:1015E80089B22046FFF7EAFE6EE7D36823F48073DA
:1015F800D3602268536923F0010353612268536959
:1016080023F040035361202384F83E3000232363F2
:101618002268D36823F01003D360A06BFFF710F89B
:10162800DAE7A18DE38D9BB2C91A89B2E38D9BB22B
:10163800002B3FF449AF00293FF446AFD36823F4A9
:101648009073D3602268536923F001035361202308
:1016580084F83E30002323632268D36823F0100304
:10166800D3602046FFF7AAFE2EE72046FFF793FC3B
:101678002AE72046FFF78CFE26E700BFB5130008CF
:1016880090F83D3090F83E00184370470346816259
:101698008285C28500201864222283F83E2083F8C0
:1016A8003C001968CA6842F48072CA6019684A69BD
:1016B80042F001024A611A68D36843F02003D360FC
:1016C800704708B590F83E30DBB2202B0DD171B1D0
:1016D8007AB190F83C30012B0DD0012380F83C30D2
:1016E80000230363FFF7D2FF00E0022008BD0120BA
:1016F800FCE70120FAE70220F8E7000030B58BB0DC
:101708000024059406940794089409940194214BA5
:101718001A6B42F020021A631A6B02F0200201923F
:10172800019A02941A6B42F080021A631A6B02F053
:1017380080020292029A03941A6B42F001021A6321
:101748001A6B02F001020392039A04941A6B42F096
:1017580002021A631B6B03F002030493049B0E4DF1
:1017680001224FF400712846FFF7BAF822464FF4D9
:1017780080612846FFF7B4F84FF4C063059301234E
:10178800069302230793089405A92846FEF7B6FF97
:101798000BB030BD003802400014024038B51E4B73
:1017A8001B78FF2B14D01C4D5A1C2A701B4C1C4A4A
:1017B8001278E254312000F013FB2A78531EE35CC0
:1017C800332B15D0012216491648FFF77AFF38BD8A
:1017D8000021114B19704FF48072104800F0AEFAD6
:1017E8004FF6FF730A2210490E48FFF7F2FCE9E7AB
:1017F8004FF6FF7321460B48FFF7EBFC0948FFF74C
:101808003FFF2128FAD00021034B19704FF4807252
:10181800024800F093FAD5E76C0900206C08002014
:101828006D090020700900207C31000872B6FEE7BF
:1018380008B50A480A4B03604FF4E13343600023BC
:101848008360C36003610C2242618361C361FFF757
:1018580091FC00B908BDFFF7E9FF00BF700900203F
:101868000010014008B50A480A4B03604FF4E13301
:10187800436000238360C36003610C22426183617B
:10188800C361FFF777FC00B908BDFFF7CFFF00BFC2
:10189800B40900200044004008B50A480A4B036018
:1018A8004FF4E133436000238360C36003610C227B
:1018B80042618361C361FFF75DFC00B908BDFFF7B2
:1018C800B5FF00BFF80900200048004000B595B0FA
:1018D8003022002108A800F031FA00230393049372
:1018E8000593069307930193204A116C41F08051A8
:1018F8001164126C02F080520192019A02931C4BFF
:101908001A6842F480421A601B6803F48043029309
:10191800029B012308934FF48033099302220E920D
:101928004FF480030F9304231093A821119112926E
:10193800139308A8FEF7DAFF98B90F23039302233D
:101948000493002305934FF4A05306934FF4C05318
:101958000793052103A8FFF72FFA20B915B05DF802
:1019680004FBFFF763FFFFF761FF00BF0038024089
:101978000070004008B5FEF7CBFD0A4C204600F089
:1019880015F8012208492046FFF79BFEFFF79EFF46
:10199800FFF7B4FEFFF74CFFFFF764FFFFF77CFF8C
:1019A800FEE700BF700900206D09002008B5054B4F
:1019B8001860054B1868002302221946806800F059
:1019C80017FA08BD3C0A00200C000020022801D8A4
:1019D8000120704708B500F087F90923036000204B
:1019E80008BD000010B5013801280AD814464FF088
:1019F800FF3392B207480068FFF7EBFB40B9204677
:101A080010BD00F071F9092303604FF0FF30F7E7CC
:101A18000520F5E73C0A0020022801D8002070477D
:101A280008B500F061F9092303604FF0FF3008BDE5
:101A380008B500F059F9092303604FF0FF3008BDDD
:101A480008B548B94FF0FF33012208480068FFF78E
:101A58002CFC40B9012008BD00F046F909230360B9
:101A68004FF0FF30F7E70520F5E700BF3C0A0020FC
:101A780008B5022804D84FF400534B60002008BD75
:101A880000F032F909230360F8E7000082B0002172
:101A980000910B4B5A6C42F480425A645A6C02F41F
:101AA80080420092009A01911A6C42F080521A64A6
:101AB8001B6C03F080530193019B02B0704700BF79
:101AC8000038024030B58DB000230793089309937E
:101AD8000A930B930368474A934207D0464A9342B6
:101AE80030D0464A934258D00DB030BD00240194FE
:101AF800434B5A6C42F010025A645A6C02F01002BE
:101B08000192019A02941A6B42F001021A631B6B4C
:101B180003F001030293029B4FF4C063079302236F
:101B2800089303230A9307230B9307A93548FEF765
:101B3800E5FD224601212520FEF728FD2520FEF798
:101B48005DFDD1E7002403942D4B1A6C42F400325A
:101B58001A641A6C02F400320392039A04941A6B02
:101B680042F001021A631B6B03F001030493049B08
:101B78000C2307930225089503230A9307230B9345
:101B880007A92048FEF7BAFD224629462620FEF777
:101B9800FDFC2620FEF732FDA6E700240594184B2D
:101BA8001A6C42F480221A641A6C02F4802205929C
:101BB800059A06941A6B42F002021A631B6B03F033
:101BC80002030693069B4FF440630793022308938E
:101BD80003250A9507230B9307A90B48FEF78EFDEB
:101BE800224629462720FEF7D1FC2720FEF706FDCE
:101BF8007AE700BF00100140004400400048004060
:101C0800003802400000024000040240FEE7FEE700
:101C1800FEE7FEE7FEE770477047704708B5FEF736
:101C280091FC08BD08B50248FFF726FC08BD00BFB7
:101C38007009002008B50248FFF71EFC08BD00BF68
:101C4800B409002008B50248FFF716FC08BD00BF1C
:101C5800F809002008B503460B4A126842B10A4A3F
:101C6800106803446A46934206D8074A136008BDC1
:101C7800054A06491160F2E700F036F80C230360C4
:101C88004FF0FF30F3E700BF400A0020900A002021
:101C980070470000DFF834D00D480E490E4A002383
:101CA80002E0D458C4500433C4188C42F9D30B4A08
:101CB8000B4C002301E013600432A242FBD3FFF770
:101CC800E7FF00F017F8FFF755FE70470000022005
:101CD800000000204C080020B83100084C08002003
:101CE8008C0A0020FEE70000014B1868704700BF0F
:101CF8000C00002070B50D4E0D4D761BB61006D0A9
:101D0800002455F8043B01349847A642F9D1094EFE
:101D1800094D761B01F022FAB61006D0002455F8BA
:101D2800043B01349847A642F9D170BDAC31000894
:101D3800AC310008B4310008AC310008830730B575
:101D480048D0541E002A3FD0CAB2034601E0013CE5
:101D58003AD303F8012B9D07F9D1032C2DD9CDB225
:101D680045EA05250F2C45EA054536D9A4F11002A8
:101D780022F00F0C03F1200EE6444FEA121C03F187
:101D8800100242E9045542E9025510327245F8D171
:101D98000CF1010214F00C0F03EB021204F00F0C0B
:101DA80013D0ACF1040323F003030433134442F8C3
:101DB800045B9342FBD10CF003042CB1CAB21C445F
:101DC80003F8012B9C42FBD130BD64461346002C1E
:101DD800F4D1F9E703461446BFE71A46A446E0E7FC
:101DE800024B01461868826800F03CBF0C000020D6
:101DF8002DE9F043694CD4F8008083B004460E46C0
:101E080017461D46B8F1000F03D0D8F83830002B1C
:101E180077D0022F05D0012F00F2AC80002DC0F240
:101E2800A980636EDA0752D52146404600F058F97A
:101E3800216B41B104F14003994202D0404600F0C1
:101E48007BFA00232363B4F90CC000231CF0800F35
:101E5800A361636064D12CF44A6C2CF0030C022F4C
:101E6800A4F80CC06AD001AB6A462146404600F08F
:101E780005FCA3891843A081002D2FD0002E2ED059
:101E8800D8F83830002B38D0009B2660AB42B4F924
:101E98000C301CBF43F40063A381012F04BF43F03F
:101EA8000103A3819AB213F00803C4E904652CD096
:101EB800D1075DD56D42A561656E002315F001055A
:101EC800A36027D00025284603B0BDE8F083A38986
:101ED8009B05A9D4A06D00F05DFBA5E7009D2846F1
:101EE80000F0FCFB0646002847D0A38943F0800396
:101EF800A381D8F83830002BC6D1404600F024F929
:101F0800C2E7404600F020F983E7A360656E15F04C
:101F18000105D7D1930524D5284603B0BDE8F08341
:101F28002169404600F008FAB4F90CC02CF44A6C58
:101F38002CF0030C022FA4F80CC094D10025002229
:101F480004F14303A2600122C4E904322360636EF2
:101F58004CF0020CD807A4F80CC0DDD41CF4007FA8
:101F6800DAD1A06D00F018FB284603B0BDE8F08375
:101F7800A560CBE74FF0FF35CEE7DDF80090A94527
:101F880004D0484600F0AAFB064620B9B4F90CC0B4
:101F98004FF0FF35D3E74D46A7E700BF0C00002000
:101FA800024B13B1024800F005B87047000000006A
:101FB80075220008002301461A46184600F0BCBFE7
:101FC800B1F90C20F8B50C461107074642D46368EE
:101FD80042F40062002BA28159DDA56A002D54D07D
:101FE80000233E683B6093B212F4805253D1E169FA
:101FF80001233846A847421C63D0A389A56A5B071A
:1020080005D56368C01A236B0BB1E36BC01AE1698D
:10201800024600233846A847411C3ED13B68002BA6
:102028003BD01D2B01D0162B52D1A38922692260E7
:1020380023F4006300216160A381216B3E6021B31A
:1020480004F14003994202D0384600F075F90020A7
:102058002063F8BD2669C6B193B2256826609A0741
:102068000CBF63690023AD1BA3600CE0D4F824C047
:10207800E1692B4632463846E047B0F1000CA5EB43
:102088000C05664416DD002DF0DC0020F8BDE36B7E
:10209800002BA2DCF9E7206DB1E7B4F90C30226916
:1020A800226023F40063A3810022DB046260C4D5AC
:1020B8002065C2E7A38943F040034FF0FF30A381B6
:1020C800F8BD3B68002B98D01D2B06D0162B04D0EA
:1020D800A38943F04003A381F8BD3E60D5E700BF64
:1020E80038B50C46054608B1836BA3B1B4F90C00AA
:1020F800B8B1636EDB0701D4810515D528462146A2
:10210800FFF75EFF636EDA07054602D4A3899B05D5
:102118000ED5284638BD00F017F8B4F90C00002891
:10212800E7D10546284638BDA06D00F033FAE5E74B
:10213800A06D00F031FA284638BD00BF014900F013
:1021480001BA00BFF12F00082DE9F047824639484F
:1021580000F020FADAF83840002C66D1DAF804509A
:10216800354ACAF83C200323CAE9B843DFF8CC90C3
:10217800DFF8CC80334F344E04230AF53B72CAF89B
:10218800E8222146C5E90243C5E90044C5E90444FB
:102198006C660822AC6105F15C00FFF7CFFDC5E96C
:1021A8000759C5E90987EE6205F1580000F0EEF914
:1021B800DAF80850254BEB602146C5E90044C5E92B
:1021C80004446C66AC60AC61082205F15C00FFF762
:1021D800B5FDC5E90759C5E90987EE6205F158005B
:1021E80000F0D4F9DAF80C50194BEB602146C5E938
:1021F8000044C5E904446C66AC60AC61082205F192
:102208005C00FFF79BFD05F15800C5E90759C5E9D2
:102218000A76C5F8248000F0B9F90123CAF83830E5
:102228000448BDE8F04700F0B7B9BDE8F0470148F9
:1022380000F0B2B9500A002045210008052D000819
:10224800292D0008692D0008892D000809000100C2
:1022580012000200014800F09DB900BF4C0A00209E
:10226800014800F099B900BF4C0A002038B5084B66
:10227800084D5B1B9C1007D0043B1D44013C55F8DE
:1022880004399847002CF9D1BDE8384000F06CBFFC
:10229800B8310008B4310008F8B5244F0C4606469A
:1022A80000F0D4FCBA685568C4F57E630F3325F096
:1022B80003052B4423F47F6323F00F03A3F5805415
:1022C800B4F5805F07DB0021304600F005FDBB68F0
:1022D8002B44984204D0304600F0BEFC0020F8BDE4
:1022E8006142304600F0F8FC01300DD0104ABB685E
:1022F8002D1B45F001055D60136830461B1B1360FC
:1023080000F0AAFC0120F8BD0021304600F0E4FCF2
:10231800BA68831A0F2BDEDD43F001035360054BC7
:1023280003491B68C01A0860D5E700BF3C040020B9
:10233800540A002044080020002961D0F8B50C4652
:10234800064600F083FC54F8042C7B4FA4F10805E2
:1023580022F0010105EB010CB868DCF80430604597
:1023680023F0030300F08B80D207CCF8043032D47A
:1023780054F8082CAD1A1144AA6807F108008242E3
:102388006AD00CEB0304D4F804E0EC68D4601EF0C7
:10239800010FA26000F0978041F001036B60CCF858
:1023A8000010B1F5007F35D27A68CB0848090121C1
:1023B800013381401143796007EBC30257F83310AA
:1023C800083AC5E9021247F83350CD603046BDE8F7
:1023D800F84000F041BC0CEB03025268D00710D45F
:1023E800194407F10800DCF80830834273D0DCF8A0
:1023F8000C20DA60936041F001036B606950D0E70C
:10240800704741F00103B1F5007F44F8043CCCF873
:102418000010C9D3B1F5206F4FEA512348D28B0978
:1024280003F1390003F13802C300F818FB580838E3
:10243800984259D05A6822F003028A4202D99B680E
:102448009842F7D1D868C5E902308560DD6030462A
:10245800BDE8F84000F000BC0CEB03025268D2075C
:1024680063D40B44DCE90212CA60916043F00102B4
:102478006A603046EB50BDE8F84000F0EDBB0B4415
:10248800D10707D454F8082CAD1A1344D5E9021221
:10249800CA60916043F001026A60284ABD60126810
:1024A8009A4293D8264B30461968FFF7F5FE8DE718
:1024B800142B0AD9542B1FD80B0B03F16F0003F10F
:1024C8006E02C300B1E719448DE703F15C0003F124
:1024D8005B02C300A9E741F00103C7E90455C5E958
:1024E80002006B60695071E779689210012404FA60
:1024F80002F20A437A60A6E7B3F5AA7F06D8CB0BA7
:1025080003F1780003F17702C3008EE740F25452DA
:10251800934206D88B0C03F17D0003F17C02C300C3
:1025280083E74FF47E737E227FE741F001036B60FF
:10253800CCF800104AE700BF3C04002048080020FF
:10254800840A00202DE9F8430746884600F53876C6
:102558004FF00009D6E90154013D11D4A389012B9C
:1025680005F1FF3508D9B4F90E300133214603D0FF
:102578003846C04749EA00096B1C04F16804EDD1EC
:102588003668002EE6D14846BDE8F883704700BF9C
:10259800704700BF704700BF704700BF2DE9F0418A
:1025A8008B890C46990796B008D504F1430301229C
:1025B800C4E90432236016B0BDE8F081B4F90E1006
:1025C8000029064627DB6A4600F074FD002821DB57
:1025D800019D05F47045A5F50055B5FA85F54FF44C
:1025E80080686D094FF400674146304600F07EF878
:1025F800B4F90C30F0B1204AF26343F08003C4F818
:102608001480A3812060206135BB3B43A38116B0B1
:10261800BDE8F081A38913F0800519D04FF0400878
:102628004146304600F062F80025B4F90C302F46D8
:102638000028E0D19A05BED423F0030304F1430235
:1026480043F002030121C4E90421A3812260B2E717
:102658004FF480682F46C7E7B4F90E10304600F0F3
:102668003FFD10B9B4F90C30CFE7A38923F0030379
:1026780043F001031BB2C8E74521000870B50C46BA
:10268800B1F90E10002996B015461E4614DB6A46AD
:1026980000F010FD00280FDB019A02F47042A2F549
:1026A8000052B2FA82F24FF4806352094FF400608C
:1026B80032602B6016B070BDB4F90C10002311F015
:1026C8008000336004D0402218462A6016B070BDDE
:1026D8004FF480632B6016B070BD00BF024B0146FB
:1026E800186800F003B800BF0C0000202DE9F04F77
:1026F80001F10B06162E83B0044624D8102900F2E7
:10270800BA8000F0A3FA102618220220B54F3A44E6
:10271800A2F1080153688B4200F0BA805A68D96860
:1027280022F003021A449D68E9608D60516841F007
:1027380001012046516003F1080500F08DFA284692
:1027480003B0BDE8F08F36F0070600F19480B1427F
:1027580000F2918000F07AFAB6F5FC7FC0F09A8119
:10276800730A00F08F80042B00F26F81B30903F124
:10277800390003F1380CC3009A4F3B44A3F1080514
:102788005B689D4206D10CE0002980F22781DB6856
:102798009D4206D05A6822F00302911B0F29F3DDEF
:1027A80060463D69DFF840C265457CD06A6822F022
:1027B8000302931B0F2B00F37B81002BC7E904CC8A
:1027C80080F26C81B2F5007F80F01A81D3087968B5
:1027D80001334FEA521E012202FA0EF20A4357F859
:1027E80033E0C5F808E007EBC3010839E9607A600F
:1027F80047F83350CEF80C5083100121994091428C
:1028080057D8114206D120F003004900114200F1C7
:102818000400FAD007EBC0094D468646D5F80C806F
:10282800454508D11DE1002B80F22481D8F80C80A1
:10283800454500F01681D8F8042022F00302931BC6
:102848000F2BF0DD2046D8E9025408EB060146F0CC
:102858000106C8F80460EC60A56043F00104C7E90C
:102868000411C1E902CC4C6048F8023000F0F4F9D8
:1028780008F1080502E00C2323600025284603B070
:10288800BDE8F08F4FF4007340204FF03F0C73E722
:10289800D3689A4208BF02307FF440AF3D69DFF841
:1028A80048C1654582D17A688310012199409142D7
:1028B800A7D9BD686B6823F003094E4503D8A9EB77
:1028C80006030F2B7ADCDFF824B1494BDBF8002034
:1028D8001B680132334405EB090A00F0338103F524
:1028E80080530F3323F47F6828F00F0841462046B1
:1028F80000F0F2F9411C024600F0F380824500F234
:10290800EE803C4B196841441960084600F04E813E
:10291800DBF80010019301311BBFA2EB0A0A5044F7
:10292800CBF80020186012F0070B00F01781CBF1EC
:1029380008010A44CBF5805190440831A1EB080105
:10294800C1F30B0A51462046009200F0C5F9421C1B
:10295800DDE9002300F04F81801A00EB0A081968AE
:10296800BA6048F001005144BD425060196000F05F
:102978002981B9F10F0F40F227816868A9F10C0C81
:102988002CF0070C00F0010040EA0C0068604FF0E2
:10299800050E05EB0C00BCF10F0FC0E901EE00F2CB
:1029A800328150681546144B1A688A4238BF19603C
:1029B800124B1A688A4238BF196094E0AA1943F08A
:1029C800010346F001066E602046BA60536000F0CD
:1029D80043F90835284603B0BDE8F08FD9681A4492
:1029E800A1E600BF3C040020440400204408002065
:1029F800840A0020540A00207C0A0020800A002053
:102A0800B2F5206F4FEA522363D3142B00F2B7803C
:102A180003F15C01C9005B3307EB010E7958AEF195
:102A2800080E8E4500F091804B6823F00303934213
:102A380002D989688E45F7D1D1F80CE07A68C5E9E2
:102A4800021ECEF80850CD60D6E6142B59D9542B67
:102A580000F29D80330B03F16F0003F16E0CC3008D
:102A68008AE60EF1010E1EF0030F05F108057FF44A
:102A7800D5AE51E0424445465368D8F80C1043F0AF
:102A88000103536055F8083F2046D9608B6000F079
:102A9800E3F8F3E6F00806F1080237E62A44204690
:102AA800536843F001035360083500F0D5F8E5E6B4
:102AB800A919204646F0010643F001046E60C7E9F3
:102AC8000411C1E902CC4C60AB5000F0C5F80835E0
:102AD800D4E6930903F13901C90038339CE7BD42B4
:102AE8005FD0BD68686820F003084645A8EB060378
:102AF80002D80F2B3FF762AF204600F0ADF8002553
:102B0800BCE603F15C0003F15B0CC30034E659F842
:102B180008394B4540F0968010F0030F00F1FF3064
:102B2800F5D17B6823EA01037B60490099423FF6AF
:102B3800C0AE19B9BDE649000EF1040E1942FAD02B
:102B4800704667E603F11008D0E69A104FF00108C6
:102B58007B6808FA02F21A437A6070E702EB080110
:102B68004942C1F30B0A51462046009200F0B4F8DE
:102B7800431CDDE900237FF4EFAEDA46EFE6542B81
:102B880025D8130B03F16F01C9006E3344E7B3F581
:102B9800AA7F25D8F30B03F1780003F1770CC30063
:102BA800EAE5294B186840441860B1E6CAF30B0CF3
:102BB800BCF1000F7FF4ACAEBD68C84448F001001A
:102BC8006860F0E61546EEE60123536094E7B3F536
:102BD800AA7F23D8D30B03F17801C90077331BE709
:102BE80040F25452934223D8B30C03F17D0003F111
:102BF8007C0CC300C0E5ABF1080BD844A8EB020875
:102C08004FF0000AABE605F1080120460093FFF7F4
:102C180093FBBD68009B68681968C4E640F254518C
:102C28008B420BD8930C03F17D01C9007C33F3E68A
:102C38004FF47E737F204FF07E0C9DE54FF47E713C
:102C48007E23E9E67B6870E7540A00200148FFF715
:102C5800A1BC00BF480A00200148FFF79DBC00BF87
:102C6800480A002070B50E461446054608B1836B25
:102C7800EBB1636ED80702D4A389990523D5A3685D
:102C8800013B002BA3601CDAA269934212DBF0B26D
:102C98000A280FD023685A1C226005461E70636EEE
:102CA800DA0702D4A3899B0511D5284670BDFFF722
:102CB8004BFADEE728462246314600F065F805461D
:102CC800EDE7F0B2E6E7A06DFFF764FCD7E7A06D8B
:102CD800FFF762FC284670BD38B5074D0022044650
:102CE80008462A60FEF7B6FF431C00D038BD2B68A3
:102CF800002BFBD0236038BD880A002010B50C4695
:102D0800B1F90E1000F014FA002803DB236D034418
:102D1800236510BDA38923F48053A38110BD00BF90
:102D28002DE9F0410C46B1F90C101F46CB050546BC
:102D380016460BD421F48051A1813B46B4F90E10FC
:102D480032462846BDE8F04100F076B8B4F90E10D6
:102D58000223002200F0D6F9B4F90C10EAE700BF0C
:102D680010B50C46B1F90E1000F0CCF9A389421C3D
:102D78000EBF23F4805343F480532065A38110BD14
:102D8800B1F90E1000F01EB9F8B50D461446064606
:102D980010B1836B002B43D0B4F90C20A369A36056
:102DA800170790B21BD52369CBB1EDB281042F462A
:102DB80022D522686169D31A994229DD0133A168B5
:102DC8000139A160511C2160157062699A422AD0AC
:102DD800A389DB0701D50A2D25D03846F8BD214641
:102DE800304600F03FF820BBB4F90C20236990B2BC
:102DF800EDB281042F46DCD442F40052A281626E07
:102E0800616922F4005262662268D31A9942D5DCBD
:102E180021463046FFF764F958B922680123CEE706
:102E2800FFF792F9B8E721463046FFF759F900282D
:102E3800D3D04FF0FF37D0E738B50C46084D84465D
:102E4800114620461A4600232B606446FEF7CAFD49
:102E5800431C00D038BD2B68002BFBD0236038BD45
:102E6800880A002038B5334B1B6805460C460BB161
:102E78009A6B12B3B4F90C3018079AB225D52169A8
:102E880000292DD012F0010007D00020A060606951
:102E98004042A06139B1002038BD950758BF60692C
:102EA800A0600029F7D1120658BF0846F4D543F0B0
:102EB8004003A3814FF0FF3038BD1846FFF744F9AF
:102EC800B4F90C3018079AB2D9D4D1062AD55207CA
:102ED80014D4216943F00803A3819AB20029D1D1FF
:102EE80002F42070B0F5007FCCD021462846FFF7C9
:102EF80055FBB4F90C3021699AB2C3E7216B51B183
:102F080004F14002914204D02846FFF715FAB4F9BB
:102F18000C300022226321690022C4E9001223F048
:102F28002403D7E7092243F040032A604FF0FF301B
:102F3800A38138BD0C0000202DE9F047DFF87CA004
:102F48000646DAF8000098460F469146FFF722FB3E
:102F58001B4B1B68D3F8484124B365681F2D26DC3A
:102F68005EB96B1C0235DAF80000636044F825701E
:102F7800FFF712FB0020BDE8F08704EB8501012371
:102F8800C1F88890D4F88821AB401A43022EC4F8BF
:102F98008821C1F80881E4D1D4F88C211343C4F8FE
:102FA8008C31DEE703F5A674C3F84841D5E7DAF8B3
:102FB8000000FFF7F1FA4FF0FF30DCE7380400209B
:102FC800A031000838B5074D0022044608462A609B
:102FD800FEF722FD431C00D038BD2B68002BFBD028
:102FE800236038BD880A002070B500294BD00646FA
:102FF8000C4610B1836B002B48D0636ED80734D5CC
:10300800B4F90C30002B3ED021463046FEF7D8FFED
:10301800E36A054633B1E169304698470028B8BFEE
:103028004FF0FF35A3891A063BD4216B41B104F157
:103038004003994202D03046FFF77EF9002323630C
:10304800616C21B13046FFF777F900236364FFF71D
:1030580001F9636E0022DB07A28127D5A06DFFF777
:1030680097FAFFF7FDF8284670BDA3899905CBD4D8
:10307800A06DFFF78FFAB4F90C30002BC4D1656E40
:1030880015F0010508D00025284670BDFFF75CF84B
:10309800636ED807B4D4E8E7A06DFFF77DFA284639
:1030A80070BD21693046FFF747F9BEE7A06DFFF70D
:1030B80073FAD3E770B50C46084D03460026204640
:1030C80011461C462E60FEF7D3FC431C00D070BD91
:1030D8002B68002BFBD0236070BD00BF880A00203E
:1030E80038B5074D0022044608462A60FEF76EFCF4
:1030F800431C00D038BD2B68002BFBD0236038BDA3
:10310800880A002038B50C46084D844611462046EA
:103118001A4600232B606446FEF78AFC431C00D045
:1031280038BD2B68002BFBD0236038BD880A0020EF
:1031380038B50C46084D8446114620461A460023E9
:103148002B606446FEF77CFC431C00D038BD2B681E
:10315800002BFBD0236038BD880A0020F8B500BFDB
:10316800F8BC08BC9E467047F8B500BFF8BC08BC60
:043178009E467047B8
:10317C00CAFDBEDDD2E7B3F600000000000000007F
:10318C00000000000102030406070809000000000B
:08319C000102030410000020F1
:0831A40054D0FF7F0100000080
:0831AC00A91F0008AD01000895
:0431B4008901000885
:1031B80001000000100000000024F40010000020AE
:1031C80000000000FC02002064030020CC03002063
:1031D80000000000000000000000000000000000E7
:1031E80000000000000000000000000000000000D7
:1031F80000000000000000000000000000000000C7
:1032080000000000000000000000000000000000B6
:1032180000000000000000000000000000000000A6
:103228000000000000000000000000000000000096
:103238000000000000000000000000000000000086
:103248000000000000000000000000000000000076
:103258000000000000000000000000000000000066
:103268000000000000000000010000000000000055
:103278000E33CDAB34126DE6ECDE05000B0000001A
:103288000000000000000000000000000000000036
:103298000000000000000000000000000000000026
:1032A8000000000000000000000000000000000016
:1032B8000000000000000000000000000000000006
:1035E8000000000000000000440A00200000000065
:1035F800000000003C0400203C040020440400209B
:10360800440400204C0400204C04002054040020F2
:10361800540400205C0400205C04002064040020A2
:10362800640400206C0400206C0400207404002052
:10363800740400207C0400207C0400208404002002
:10364800840400208C0400208C04002094040020B2
:10365800940400209C0400209C040020A404002062
:10366800A4040020AC040020AC040020B404002012
:10367800B4040020BC040020BC040020C4040020C2
:10368800C4040020CC040020CC040020D404002072
:10369800D4040020DC040020DC040020E404002022
:1036A800E4040020EC040020EC040020F4040020D2
:1036B800F4040020FC040020FC0400200405002081
:1036C800040500200C0500200C050020140500202E
:1036D800140500201C0500201C05002024050020DE
:1036E800240500202C0500202C050020340500208E
:1036F800340500203C0500203C050020440500203E
:10370800440500204C0500204C05002054050020ED
:10371800540500205C0500205C050020640500209D
:10372800640500206C0500206C050020740500204D
:10373800740500207C0500207C05002084050020FD
:10374800840500208C0500208C05002094050020AD
:10375800940500209C0500209C050020A40500205D
:10376800A4050020AC050020AC050020B40500200D
:10377800B4050020BC050020BC050020C4050020BD
:10378800C4050020CC050020CC050020D40500206D
:10379800D4050020DC050020DC050020E40500201D
:1037A800E4050020EC050020EC050020F4050020CD
:1037B800F4050020FC050020FC050020040600207C
:1037C800040600200C0600200C0600201406002029
:1037D800140600201C0600201C06002024060020D9
:1037E800240600202C0600202C0600203406002089
:1037F800340600203C0600203C0600204406002039
:10380800440600204C0600204C06002054060020E8
:10381800540600205C0600205C0600206406002098
:10382800640600206C0600206C0600207406002048
:10383800740600207C0600207C06002084060020F8
:10384800840600208C0600208C06002094060020A8
:10385800940600209C0600209C060020A406002058
:10386800A4060020AC060020AC060020B406002008
:10387800B4060020BC060020BC060020C4060020B8
:10388800C4060020CC060020CC060020D406002068
:10389800D4060020DC060020DC060020E406002018
:1038A800E4060020EC060020EC060020F4060020C8
:1038B800F4060020FC060020FC0600200407002077
:1038C800040700200C0700200C0700201407002024
:1038D800140700201C0700201C07002024070020D4
:1038E800240700202C0700202C0700203407002084
:1038F800340700203C0700203C0700204407002034
:10390800440700204C0700204C07002054070020E3
:10391800540700205C0700205C0700206407002093
:10392800640700206C0700206C0700207407002043
:10393800740700207C0700207C07002084070020F3
:10394800840700208C0700208C07002094070020A3
:10395800940700209C0700209C070020A407002053
:10396800A4070020AC070020AC070020B407002003
:10397800B4070020BC070020BC070020C4070020B3
:10398800C4070020CC070020CC070020D407002063
:10399800D4070020DC070020DC070020E407002013
:1039A800E4070020EC070020EC070020F4070020C3
:1039B800F4070020FC070020FC0700200408002072
:1039C800040800200C0800200C080020140800201F
:1039D800140800201C0800201C08002024080020CF
:1039E800240800202C0800202C080020340800207F
:0C39F80034080020FFFFFFFF0000020069
:0400000508001C9D36
:00000001FF
